{
  "_format": "hh-sol-artifact-1",
  "contractName": "PaymentRequest",
  "sourceName": "contracts/PaymentRequest.sol",
  "abi": [
    {
      "inputs": [
        {
          "internalType": "address",
          "name": "_xfiTokenAddress",
          "type": "address"
        },
        {
          "internalType": "address",
          "name": "_diaOracleAddress",
          "type": "address"
        }
      ],
      "stateMutability": "nonpayable",
      "type": "constructor"
    },
    {
      "inputs": [],
      "name": "ReentrancyGuardReentrantCall",
      "type": "error"
    },
    {
      "anonymous": false,
      "inputs": [
        {
          "indexed": true,
          "internalType": "bytes32",
          "name": "requestId",
          "type": "bytes32"
        },
        {
          "indexed": false,
          "internalType": "address",
          "name": "payer",
          "type": "address"
        },
        {
          "indexed": false,
          "internalType": "uint256",
          "name": "amount",
          "type": "uint256"
        },
        {
          "indexed": false,
          "internalType": "uint256",
          "name": "xfiPrice",
          "type": "uint256"
        }
      ],
      "name": "PaymentMade",
      "type": "event"
    },
    {
      "anonymous": false,
      "inputs": [
        {
          "indexed": true,
          "internalType": "bytes32",
          "name": "requestId",
          "type": "bytes32"
        },
        {
          "indexed": false,
          "internalType": "address",
          "name": "recipient",
          "type": "address"
        },
        {
          "indexed": false,
          "internalType": "uint256",
          "name": "amount",
          "type": "uint256"
        },
        {
          "indexed": false,
          "internalType": "uint256",
          "name": "xfiPrice",
          "type": "uint256"
        }
      ],
      "name": "RequestCreated",
      "type": "event"
    },
    {
      "anonymous": false,
      "inputs": [
        {
          "indexed": true,
          "internalType": "address",
          "name": "user",
          "type": "address"
        },
        {
          "indexed": false,
          "internalType": "uint256",
          "name": "amount",
          "type": "uint256"
        }
      ],
      "name": "Staked",
      "type": "event"
    },
    {
      "anonymous": false,
      "inputs": [
        {
          "indexed": true,
          "internalType": "address",
          "name": "user",
          "type": "address"
        },
        {
          "indexed": false,
          "internalType": "uint256",
          "name": "amount",
          "type": "uint256"
        }
      ],
      "name": "Unstaked",
      "type": "event"
    },
    {
      "inputs": [],
      "name": "PREMIUM_STAKE_AMOUNT",
      "outputs": [
        {
          "internalType": "uint256",
          "name": "",
          "type": "uint256"
        }
      ],
      "stateMutability": "view",
      "type": "function"
    },
    {
      "inputs": [],
      "name": "PREMIUM_STAKE_TIME",
      "outputs": [
        {
          "internalType": "uint256",
          "name": "",
          "type": "uint256"
        }
      ],
      "stateMutability": "view",
      "type": "function"
    },
    {
      "inputs": [
        {
          "internalType": "uint256",
          "name": "_amount",
          "type": "uint256"
        },
        {
          "internalType": "string",
          "name": "_description",
          "type": "string"
        },
        {
          "internalType": "uint256",
          "name": "_expiration",
          "type": "uint256"
        }
      ],
      "name": "createRequest",
      "outputs": [
        {
          "internalType": "bytes32",
          "name": "",
          "type": "bytes32"
        }
      ],
      "stateMutability": "nonpayable",
      "type": "function"
    },
    {
      "inputs": [],
      "name": "diaOracle",
      "outputs": [
        {
          "internalType": "contract IDiaOracle",
          "name": "",
          "type": "address"
        }
      ],
      "stateMutability": "view",
      "type": "function"
    },
    {
      "inputs": [],
      "name": "getXFIPrice",
      "outputs": [
        {
          "internalType": "uint256",
          "name": "",
          "type": "uint256"
        }
      ],
      "stateMutability": "view",
      "type": "function"
    },
    {
      "inputs": [
        {
          "internalType": "address",
          "name": "_user",
          "type": "address"
        }
      ],
      "name": "isPremiumUser",
      "outputs": [
        {
          "internalType": "bool",
          "name": "",
          "type": "bool"
        }
      ],
      "stateMutability": "view",
      "type": "function"
    },
    {
      "inputs": [
        {
          "internalType": "bytes32",
          "name": "_requestId",
          "type": "bytes32"
        }
      ],
      "name": "payRequest",
      "outputs": [],
      "stateMutability": "nonpayable",
      "type": "function"
    },
    {
      "inputs": [
        {
          "internalType": "bytes32",
          "name": "",
          "type": "bytes32"
        }
      ],
      "name": "requests",
      "outputs": [
        {
          "internalType": "address payable",
          "name": "recipient",
          "type": "address"
        },
        {
          "internalType": "uint256",
          "name": "amount",
          "type": "uint256"
        },
        {
          "internalType": "string",
          "name": "description",
          "type": "string"
        },
        {
          "internalType": "uint256",
          "name": "expiration",
          "type": "uint256"
        },
        {
          "internalType": "bool",
          "name": "paid",
          "type": "bool"
        },
        {
          "internalType": "uint256",
          "name": "xfiPriceAtCreation",
          "type": "uint256"
        }
      ],
      "stateMutability": "view",
      "type": "function"
    },
    {
      "inputs": [
        {
          "internalType": "uint256",
          "name": "_amount",
          "type": "uint256"
        }
      ],
      "name": "stake",
      "outputs": [],
      "stateMutability": "nonpayable",
      "type": "function"
    },
    {
      "inputs": [
        {
          "internalType": "uint256",
          "name": "_amount",
          "type": "uint256"
        }
      ],
      "name": "unstake",
      "outputs": [],
      "stateMutability": "nonpayable",
      "type": "function"
    },
    {
      "inputs": [
        {
          "internalType": "address",
          "name": "",
          "type": "address"
        }
      ],
      "name": "users",
      "outputs": [
        {
          "internalType": "uint256",
          "name": "stakedAmount",
          "type": "uint256"
        },
        {
          "internalType": "uint256",
          "name": "lastStakeTime",
          "type": "uint256"
        },
        {
          "internalType": "bool",
          "name": "isPremium",
          "type": "bool"
        }
      ],
      "stateMutability": "view",
      "type": "function"
    },
    {
      "inputs": [],
      "name": "xfiToken",
      "outputs": [
        {
          "internalType": "contract IERC20",
          "name": "",
          "type": "address"
        }
      ],
      "stateMutability": "view",
      "type": "function"
    }
  ],
  "bytecode": "0x60806040523480156200001157600080fd5b506040516200218938038062002189833981810160405281019062000037919062000133565b600160008190555081600160006101000a81548173ffffffffffffffffffffffffffffffffffffffff021916908373ffffffffffffffffffffffffffffffffffffffff16021790555080600260006101000a81548173ffffffffffffffffffffffffffffffffffffffff021916908373ffffffffffffffffffffffffffffffffffffffff16021790555050506200017a565b600080fd5b600073ffffffffffffffffffffffffffffffffffffffff82169050919050565b6000620000fb82620000ce565b9050919050565b6200010d81620000ee565b81146200011957600080fd5b50565b6000815190506200012d8162000102565b92915050565b600080604083850312156200014d576200014c620000c9565b5b60006200015d858286016200011c565b925050602062000170858286016200011c565b9150509250929050565b611fff806200018a6000396000f3fe608060405234801561001057600080fd5b50600436106100b45760003560e01c80639d866985116100715780639d8669851461018d578063a694fc3a146101c2578063a87430ba146101de578063e724280a14610210578063e7bb654d1461022e578063f0b52b5a1461024c576100b4565b80632ce773cd146100b95780632e17de78146100d75780634978c38a146100f35780636081fce21461012357806387b13db614610141578063913fdfbd1461015d575b600080fd5b6100c161026a565b6040516100ce91906110b3565b60405180910390f35b6100f160048036038101906100ec9190611118565b610290565b005b61010d60048036038101906101089190611183565b6105a0565b60405161011a91906111cb565b60405180910390f35b61012b610655565b60405161013891906111f5565b60405180910390f35b61015b60048036038101906101569190611246565b61065c565b005b610177600480360381019061017291906113b9565b610988565b6040516101849190611437565b60405180910390f35b6101a760048036038101906101a29190611246565b610b0e565b6040516101b9969594939291906114f2565b60405180910390f35b6101dc60048036038101906101d79190611118565b610bff565b005b6101f860048036038101906101f39190611183565b610ec2565b6040516102079392919061155a565b60405180910390f35b610218610ef9565b60405161022591906115b2565b60405180910390f35b610236610f1f565b60405161024391906111f5565b60405180910390f35b610254610fd7565b60405161026191906111f5565b60405180910390f35b600260009054906101000a900473ffffffffffffffffffffffffffffffffffffffff1681565b610298610fe4565b600081116102db576040517f08c379a00000000000000000000000000000000000000000000000000000000081526004016102d29061163f565b60405180910390fd5b80600460003373ffffffffffffffffffffffffffffffffffffffff1673ffffffffffffffffffffffffffffffffffffffff168152602001908152602001600020600001541015610360576040517f08c379a0000000000000000000000000000000000000000000000000000000008152600401610357906116ab565b60405180910390fd5b80600460003373ffffffffffffffffffffffffffffffffffffffff1673ffffffffffffffffffffffffffffffffffffffff16815260200190815260200160002060000160008282546103b291906116fa565b92505081905550600160009054906101000a900473ffffffffffffffffffffffffffffffffffffffff1673ffffffffffffffffffffffffffffffffffffffff1663a9059cbb33836040518363ffffffff1660e01b815260040161041692919061173d565b6020604051808303816000875af1158015610435573d6000803e3d6000fd5b505050506040513d601f19601f820116820180604052508101906104599190611792565b610498576040517f08c379a000000000000000000000000000000000000000000000000000000000815260040161048f9061180b565b60405180910390fd5b683635c9adc5dea00000600460003373ffffffffffffffffffffffffffffffffffffffff1673ffffffffffffffffffffffffffffffffffffffff168152602001908152602001600020600001541015610547576000600460003373ffffffffffffffffffffffffffffffffffffffff1673ffffffffffffffffffffffffffffffffffffffff16815260200190815260200160002060020160006101000a81548160ff0219169083151502179055505b3373ffffffffffffffffffffffffffffffffffffffff167f0f5bb82176feb1b5e747e28471aa92156a04d9f3ab9f45f28e2d704232b93f758260405161058d91906111f5565b60405180910390a261059d61102a565b50565b6000600460008373ffffffffffffffffffffffffffffffffffffffff1673ffffffffffffffffffffffffffffffffffffffff16815260200190815260200160002060020160009054906101000a900460ff16801561064e575062278d00600460008473ffffffffffffffffffffffffffffffffffffffff1673ffffffffffffffffffffffffffffffffffffffff168152602001908152602001600020600101544261064b91906116fa565b10155b9050919050565b62278d0081565b610664610fe4565b60006003600083815260200190815260200160002090508060040160009054906101000a900460ff16156106cd576040517f08c379a00000000000000000000000000000000000000000000000000000000081526004016106c490611877565b60405180910390fd5b8060030154421115610714576040517f08c379a000000000000000000000000000000000000000000000000000000000815260040161070b906118e3565b60405180910390fd5b600061071e610f1f565b905060018260040160006101000a81548160ff021916908315150217905550600160009054906101000a900473ffffffffffffffffffffffffffffffffffffffff1673ffffffffffffffffffffffffffffffffffffffff166323b872dd338460000160009054906101000a900473ffffffffffffffffffffffffffffffffffffffff1685600101546040518463ffffffff1660e01b81526004016107c493929190611924565b6020604051808303816000875af11580156107e3573d6000803e3d6000fd5b505050506040513d601f19601f820116820180604052508101906108079190611792565b610846576040517f08c379a000000000000000000000000000000000000000000000000000000000815260040161083d9061180b565b60405180910390fd5b827fd937901cdba418ad58197ad9fff6d624568dcc4f6506b4f17a79b18b7da80c213384600101548460405161087e9392919061195b565b60405180910390a260006064836001015461089991906119c1565b9050600160009054906101000a900473ffffffffffffffffffffffffffffffffffffffff1673ffffffffffffffffffffffffffffffffffffffff1663a9059cbb33836040518363ffffffff1660e01b81526004016108f892919061173d565b6020604051808303816000875af1158015610917573d6000803e3d6000fd5b505050506040513d601f19601f8201168201806040525081019061093b9190611792565b61097a576040517f08c379a000000000000000000000000000000000000000000000000000000000815260040161097190611a3e565b60405180910390fd5b50505061098561102a565b50565b600080610993610f1f565b905060003342876040516020016109ac93929190611ac7565b6040516020818303038152906040528051906020012090506040518060c001604052803373ffffffffffffffffffffffffffffffffffffffff1681526020018781526020018681526020018542610a039190611b04565b8152602001600015158152602001838152506003600083815260200190815260200160002060008201518160000160006101000a81548173ffffffffffffffffffffffffffffffffffffffff021916908373ffffffffffffffffffffffffffffffffffffffff160217905550602082015181600101556040820151816002019081610a8e9190611d3a565b506060820151816003015560808201518160040160006101000a81548160ff02191690831515021790555060a08201518160050155905050807f95ff0033013b00606c006d8f7b88020da57e22a19ed34699ce8b064d6bfa5694338885604051610afa9392919061195b565b60405180910390a280925050509392505050565b60036020528060005260406000206000915090508060000160009054906101000a900473ffffffffffffffffffffffffffffffffffffffff1690806001015490806002018054610b5d90611b67565b80601f0160208091040260200160405190810160405280929190818152602001828054610b8990611b67565b8015610bd65780601f10610bab57610100808354040283529160200191610bd6565b820191906000526020600020905b815481529060010190602001808311610bb957829003601f168201915b5050505050908060030154908060040160009054906101000a900460ff16908060050154905086565b60008111610c42576040517f08c379a0000000000000000000000000000000000000000000000000000000008152600401610c3990611e7e565b60405180910390fd5b600160009054906101000a900473ffffffffffffffffffffffffffffffffffffffff1673ffffffffffffffffffffffffffffffffffffffff166323b872dd3330846040518463ffffffff1660e01b8152600401610ca193929190611e9e565b6020604051808303816000875af1158015610cc0573d6000803e3d6000fd5b505050506040513d601f19601f82011682018060405250810190610ce49190611792565b610d23576040517f08c379a0000000000000000000000000000000000000000000000000000000008152600401610d1a9061180b565b60405180910390fd5b80600460003373ffffffffffffffffffffffffffffffffffffffff1673ffffffffffffffffffffffffffffffffffffffff1681526020019081526020016000206000016000828254610d759190611b04565b9250508190555042600460003373ffffffffffffffffffffffffffffffffffffffff1673ffffffffffffffffffffffffffffffffffffffff16815260200190815260200160002060010181905550683635c9adc5dea00000600460003373ffffffffffffffffffffffffffffffffffffffff1673ffffffffffffffffffffffffffffffffffffffff1681526020019081526020016000206000015410610e71576001600460003373ffffffffffffffffffffffffffffffffffffffff1673ffffffffffffffffffffffffffffffffffffffff16815260200190815260200160002060020160006101000a81548160ff0219169083151502179055505b3373ffffffffffffffffffffffffffffffffffffffff167f9e71bc8eea02a63969f509818f2dafb9254532904319f9dbda79b67bd34a5f3d82604051610eb791906111f5565b60405180910390a250565b60046020528060005260406000206000915090508060000154908060010154908060020160009054906101000a900460ff16905083565b600160009054906101000a900473ffffffffffffffffffffffffffffffffffffffff1681565b600080600260009054906101000a900473ffffffffffffffffffffffffffffffffffffffff1673ffffffffffffffffffffffffffffffffffffffff1663960384a06040518163ffffffff1660e01b8152600401610f7b90611f21565b6040805180830381865afa158015610f97573d6000803e3d6000fd5b505050506040513d601f19601f82011682018060405250810190610fbb9190611f89565b509050806fffffffffffffffffffffffffffffffff1691505090565b683635c9adc5dea0000081565b600260005403611020576040517f3ee5aeb500000000000000000000000000000000000000000000000000000000815260040160405180910390fd5b6002600081905550565b6001600081905550565b600073ffffffffffffffffffffffffffffffffffffffff82169050919050565b6000819050919050565b600061107961107461106f84611034565b611054565b611034565b9050919050565b600061108b8261105e565b9050919050565b600061109d82611080565b9050919050565b6110ad81611092565b82525050565b60006020820190506110c860008301846110a4565b92915050565b6000604051905090565b600080fd5b600080fd5b6000819050919050565b6110f5816110e2565b811461110057600080fd5b50565b600081359050611112816110ec565b92915050565b60006020828403121561112e5761112d6110d8565b5b600061113c84828501611103565b91505092915050565b600061115082611034565b9050919050565b61116081611145565b811461116b57600080fd5b50565b60008135905061117d81611157565b92915050565b600060208284031215611199576111986110d8565b5b60006111a78482850161116e565b91505092915050565b60008115159050919050565b6111c5816111b0565b82525050565b60006020820190506111e060008301846111bc565b92915050565b6111ef816110e2565b82525050565b600060208201905061120a60008301846111e6565b92915050565b6000819050919050565b61122381611210565b811461122e57600080fd5b50565b6000813590506112408161121a565b92915050565b60006020828403121561125c5761125b6110d8565b5b600061126a84828501611231565b91505092915050565b600080fd5b600080fd5b6000601f19601f8301169050919050565b7f4e487b7100000000000000000000000000000000000000000000000000000000600052604160045260246000fd5b6112c68261127d565b810181811067ffffffffffffffff821117156112e5576112e461128e565b5b80604052505050565b60006112f86110ce565b905061130482826112bd565b919050565b600067ffffffffffffffff8211156113245761132361128e565b5b61132d8261127d565b9050602081019050919050565b82818337600083830152505050565b600061135c61135784611309565b6112ee565b90508281526020810184848401111561137857611377611278565b5b61138384828561133a565b509392505050565b600082601f8301126113a05761139f611273565b5b81356113b0848260208601611349565b91505092915050565b6000806000606084860312156113d2576113d16110d8565b5b60006113e086828701611103565b935050602084013567ffffffffffffffff811115611401576114006110dd565b5b61140d8682870161138b565b925050604061141e86828701611103565b9150509250925092565b61143181611210565b82525050565b600060208201905061144c6000830184611428565b92915050565b600061145d82611034565b9050919050565b61146d81611452565b82525050565b600081519050919050565b600082825260208201905092915050565b60005b838110156114ad578082015181840152602081019050611492565b60008484015250505050565b60006114c482611473565b6114ce818561147e565b93506114de81856020860161148f565b6114e78161127d565b840191505092915050565b600060c0820190506115076000830189611464565b61151460208301886111e6565b818103604083015261152681876114b9565b905061153560608301866111e6565b61154260808301856111bc565b61154f60a08301846111e6565b979650505050505050565b600060608201905061156f60008301866111e6565b61157c60208301856111e6565b61158960408301846111bc565b949350505050565b600061159c82611080565b9050919050565b6115ac81611591565b82525050565b60006020820190506115c760008301846115a3565b92915050565b7f556e7374616b6520616d6f756e74206d7573742062652067726561746572207460008201527f68616e2030000000000000000000000000000000000000000000000000000000602082015250565b600061162960258361147e565b9150611634826115cd565b604082019050919050565b600060208201905081810360008301526116588161161c565b9050919050565b7f496e73756666696369656e74207374616b656420616d6f756e74000000000000600082015250565b6000611695601a8361147e565b91506116a08261165f565b602082019050919050565b600060208201905081810360008301526116c481611688565b9050919050565b7f4e487b7100000000000000000000000000000000000000000000000000000000600052601160045260246000fd5b6000611705826110e2565b9150611710836110e2565b9250828203905081811115611728576117276116cb565b5b92915050565b61173781611145565b82525050565b6000604082019050611752600083018561172e565b61175f60208301846111e6565b9392505050565b61176f816111b0565b811461177a57600080fd5b50565b60008151905061178c81611766565b92915050565b6000602082840312156117a8576117a76110d8565b5b60006117b68482850161177d565b91505092915050565b7f584649207472616e73666572206661696c656400000000000000000000000000600082015250565b60006117f560138361147e565b9150611800826117bf565b602082019050919050565b60006020820190508181036000830152611824816117e8565b9050919050565b7f5265717565737420616c72656164792070616964000000000000000000000000600082015250565b600061186160148361147e565b915061186c8261182b565b602082019050919050565b6000602082019050818103600083015261189081611854565b9050919050565b7f5265717565737420686173206578706972656400000000000000000000000000600082015250565b60006118cd60138361147e565b91506118d882611897565b602082019050919050565b600060208201905081810360008301526118fc816118c0565b9050919050565b600061190e82611080565b9050919050565b61191e81611903565b82525050565b6000606082019050611939600083018661172e565b6119466020830185611915565b61195360408301846111e6565b949350505050565b6000606082019050611970600083018661172e565b61197d60208301856111e6565b61198a60408301846111e6565b949350505050565b7f4e487b7100000000000000000000000000000000000000000000000000000000600052601260045260246000fd5b60006119cc826110e2565b91506119d7836110e2565b9250826119e7576119e6611992565b5b828204905092915050565b7f436173686261636b207472616e73666572206661696c65640000000000000000600082015250565b6000611a2860188361147e565b9150611a33826119f2565b602082019050919050565b60006020820190508181036000830152611a5781611a1b565b9050919050565b60008160601b9050919050565b6000611a7682611a5e565b9050919050565b6000611a8882611a6b565b9050919050565b611aa0611a9b82611145565b611a7d565b82525050565b6000819050919050565b611ac1611abc826110e2565b611aa6565b82525050565b6000611ad38286611a8f565b601482019150611ae38285611ab0565b602082019150611af38284611ab0565b602082019150819050949350505050565b6000611b0f826110e2565b9150611b1a836110e2565b9250828201905080821115611b3257611b316116cb565b5b92915050565b7f4e487b7100000000000000000000000000000000000000000000000000000000600052602260045260246000fd5b60006002820490506001821680611b7f57607f821691505b602082108103611b9257611b91611b38565b5b50919050565b60008190508160005260206000209050919050565b60006020601f8301049050919050565b600082821b905092915050565b600060088302611bfa7fffffffffffffffffffffffffffffffffffffffffffffffffffffffffffffffff82611bbd565b611c048683611bbd565b95508019841693508086168417925050509392505050565b6000611c37611c32611c2d846110e2565b611054565b6110e2565b9050919050565b6000819050919050565b611c5183611c1c565b611c65611c5d82611c3e565b848454611bca565b825550505050565b600090565b611c7a611c6d565b611c85818484611c48565b505050565b5b81811015611ca957611c9e600082611c72565b600181019050611c8b565b5050565b601f821115611cee57611cbf81611b98565b611cc884611bad565b81016020851015611cd7578190505b611ceb611ce385611bad565b830182611c8a565b50505b505050565b600082821c905092915050565b6000611d1160001984600802611cf3565b1980831691505092915050565b6000611d2a8383611d00565b9150826002028217905092915050565b611d4382611473565b67ffffffffffffffff811115611d5c57611d5b61128e565b5b611d668254611b67565b611d71828285611cad565b600060209050601f831160018114611da45760008415611d92578287015190505b611d9c8582611d1e565b865550611e04565b601f198416611db286611b98565b60005b82811015611dda57848901518255600182019150602085019450602081019050611db5565b86831015611df75784890151611df3601f891682611d00565b8355505b6001600288020188555050505b505050505050565b7f5374616b6520616d6f756e74206d75737420626520677265617465722074686160008201527f6e20300000000000000000000000000000000000000000000000000000000000602082015250565b6000611e6860238361147e565b9150611e7382611e0c565b604082019050919050565b60006020820190508181036000830152611e9781611e5b565b9050919050565b6000606082019050611eb3600083018661172e565b611ec0602083018561172e565b611ecd60408301846111e6565b949350505050565b7f5846492f55534400000000000000000000000000000000000000000000000000600082015250565b6000611f0b60078361147e565b9150611f1682611ed5565b602082019050919050565b60006020820190508181036000830152611f3a81611efe565b9050919050565b60006fffffffffffffffffffffffffffffffff82169050919050565b611f6681611f41565b8114611f7157600080fd5b50565b600081519050611f8381611f5d565b92915050565b60008060408385031215611fa057611f9f6110d8565b5b6000611fae85828601611f74565b9250506020611fbf85828601611f74565b915050925092905056fea2646970667358221220a412b57ad916634eaa9d24964d679445ff0a4ed0c00d441f9329235e14f5a29564736f6c63430008140033",
  "linkReferences": {},
  "deployedLinkReferences": {}
}